:020000040800F2
:10000000FCFF00207D2100000520000005200000ED
:10001000052000000520000005200000052000004C
:10002000052000000520000005200000052000003C
:10003000052000000520000005200000052000002C
:10004000052000000520000005200000052000001C
:10005000052000000520000005200000052000000C
:1000600005200000052000000520000005200000FC
:1000700005200000052000000520000005200000EC
:1000800005200000052000000520000005200000DC
:1000900005200000052000000520000005200000CC
:1000A00005200000052000000520000005200000BC
:1000B0000D200000052000000520000005200000A4
:1000C000052000000520000005200000052000009C
:1000D000052000000520000005200000052000008C
:1000E000052000000520000005200000052000007C
:1000F000052000000520000005200000052000006C
:10010000052000000520000005200000052000005B
:10011000052000000520000005200000052000004B
:10012000052000000520000005200000052000003B
:10013000052000000520000005200000052000002B
:10014000052000000520000005200000052000001B
:1001500001480068704700BFE40B002083B0CDF871
:1001600000E000F0FF031A09104603F00F021346E7
:1001700014E0194A02921FE0184A02921CE0184A41
:10018000029219E0174A029216E0174A029213E00F
:10019000164A029210E0164A02920DE00028E8D0BA
:1001A0000128E9D00228EAD00328EBD00428ECD0BB
:1001B0000528EDD00628EED0012212B29A40ADF803
:1001C000042002980A46BDF8041000F0BFFADDF8DA
:1001D00000E003B0704700BF00080140000C014080
:1001E000001001400014014000180140001C0140B3
:1001F0000020014081B0194900EA010108460022AF
:100200000EE0042022E0082020E010201EE0202044
:100210001CE040201AE0802018E040F2001015E0B9
:100220000F498842EDD00F498842ECD00E498842F0
:10023000EBD00E498842EAD00D498842E9D00D49F9
:100240008842E8D00C498842E7D010460B4909683B
:1002500041EA000209490A6001B0704700FCFFFF53
:1002600000080140000C0140001001400014014052
:1002700000180140001C01400020014018100240FD
:1002800081B0CDF800E0012252B23E490A6000F28E
:1002900068010B686FF0006103EA0102144603F085
:1002A0000061C90E0B4602F00041B1F1004F02D1CE
:1002B00035490A6801E035490A6804F47021090CDF
:1002C0000E464FF6FF7104EA01010D4604F4401199
:1002D000B1F5401F0DD16FF0706102EA01010E46C9
:1002E0002A490A686FF070610A4028490A6032465C
:1002F00016E004F48011B1F5801F09D14FF003011D
:10030000B140C94302EA010141F070610A4607E0C9
:10031000610D090105FA01F1C9430A4042F070621A
:100320002BB1610D090105FA01F10A43FFE704F061
:100330000041B1F1004F02D113490A6001E01349B5
:100340000A6040F2000A81464FEA8A0109EB010186
:100350000968B1F1FF3F10D009F134014FEA8A0377
:10036000C91809680A4609EB0301096808461146DD
:10037000FFF7F4FE0AF1010AE6E7DDF800E001B05C
:10038000704700BF000342421C00014004000140CE
:1003900082B0CDF800E0034619460191FFF7D8FE80
:1003A00040F2E83100FB01F201990A601F49097827
:1003B000C1F30311C8B21E4909180878C0B21A1D4A
:1003C0001968C140116019490988C1F3022188B236
:1003D000174909180878C0B203F20802191D096804
:1003E000C140116011490988C1F3C22188B2104986
:1003F00009180878C0B203F20C02191D0968C1403F
:1004000011600A490988C1F3813188B20949091884
:100410000978C8B203F2100203F20C010968B1FBBB
:10042000F0F11160DDF800E002B070470410024006
:10043000AB2D00005C1F000081B00268C2F34011C8
:1004400001B9FAE7011D096888B201B07047FFFFE2
:1004500089B0CDF800E0834698B28C46BDF82410F0
:100460000A9E04ACADF80410ADF808002046FFF772
:100470008FFFBDF80800BDF80410644CA34512D1ED
:1004800001256DB2624C2560624D634C2560634D61
:10049000634C2560634D644C2560644D644C25605D
:1004A000079C039456E0634CA34512D101256DB21D
:1004B000614C2560614D584C2560614D584C25605C
:1004C000604D594C2560604D594C2560069C039445
:1004D00040E05E4CA34512D101256DB25C4C256015
:1004E0005C4D4D4C25605C4D4D4C25605B4D4E4C3C
:1004F00025605B4D4E4C2560069C03942AE0594CC8
:10050000A34512D101256DB2574C2560574D424C81
:100510002560574D424C2560564D434C2560564D45
:10052000434C2560069C039414E0544CA34511D120
:1005300001256DB2524C2560524D374C2560524D0D
:10054000374C2560514D384C2560514D384C256055
:10055000069C0394ADF80410ADF808003046FFF790
:100560008FFEBDF80800BDF804100BF11005002443
:100570002C600BF110052C680C432C600BF10C0562
:1005800000242C6018B140F4806080B2FFE70BF1CA
:100590000C052C6804432C600BF10C060125346813
:1005A00065F34D3434600BF10C060125346865F3B6
:1005B000C30434600BF10C060125346865F3820432
:1005C00034600BF1140500242C60039D192465434D
:1005D0004FEA8C04B5FBF4F76424B7FBF4F426016E
:1005E000350964246C433C1B240104F23205642465
:1005F000B5FBF4F404F00F0446EA04040BF108051B
:10060000A4B22C60DDF800E009B07047003801406A
:1006100038034242990D0000E80B0020250A000033
:10062000EC0B00203D0A0000F00B0020F50A000052
:10063000F40B002000440040C4034242490B000078
:10064000C50A0000DD0A00007109000000480040F2
:10065000C8034242D5090000890900005909000079
:1006600041090000004C0040CC034242B90900009F
:10067000A1090000F1090000650D000000500040D4
:10068000D0034242090A0000350D00004D0D000064
:10069000B50D0000014640F2000340F2000082B2B6
:1006A0000846C118097821B15B1C9BB2521C92B25A
:1006B000F7E790B27047FFFF81B0ADF80010014638
:1006C000BDF800000B68C3F3C01202B9FAE70A1DB7
:1006D000106001B07047FFFF81B00168C1F3801066
:1006E00001B0704781B00168C1F3401001B070479C
:1006F00093B20A46014640F2000440F200001FFA9D
:1007000080F810469AB2EAB10B191D78EEB2631C5C
:100710009FB200EB08031C785FFA84F908F1010826
:100720001FFA88F8A54207D04E4502D2FF2040B2FA
:1007300001E0012040B207E006B903E0521E92B288
:10074000BCB2E0E7002040B27047FFFF81B0CDF8B7
:1007500000E08CB21546774B00EA03031E461846AC
:10076000FFF748FDB4F1FF0F0CD1734B9D4203D14D
:100770004FF033333360D9E0422D03D14FF044338F
:100780003360D3E04FF6FF739C4214D16A4B9D4215
:1007900007D14FF033333360341D4FF033332360D0
:1007A000C4E0422D07D14FF044333360341D4FF085
:1007B00044332360BAE00021002005F001030BB1AF
:1007C00000211DE005F0020333B105F4C0730BB145
:1007D000082100E0042113E005F0040333B105F023
:1007E00020030BB1042100E0002109E005F008031B
:1007F00033B105F020030BB10C2100E00821FFE725
:100800004E4B05EA03030BB1032009E005F4007326
:100810000BB1022004E005F480630BB10120FFE777
:1008200005F00C030BB10143FFE704F0FF039BB29B
:10083000002B3BD0376800201FFA84F832462E4642
:1008400008282CD24FF0010303FA00F408EA04034D
:10085000A34222D185004FF00F03AB40DB4307EAF0
:10086000030401FA05F344EA03031D4606F4817309
:10087000B3F5817F05D102F214044FF001038340E8
:10088000236006F08203822B05D102F210044FF0A0
:100890000103834023602F46FFE7401CD0E7176029
:1008A0001FFA88F00F463146164602E00F462946E9
:1008B000A0B2B0F1FF0F39D9331DD3F80080002268
:1008C000082A30D202F208044FF0010303FA04F4BC
:1008D00000EA0403A34224D195004FF00F03AB407C
:1008E000DB4308EA030807FA05F348EA030801F4C2
:1008F0008173B3F5817F07D106F2140502F2080473
:100900004FF00103A3402B6001F08203822B07D13B
:1009100006F2100502F208044FF00103A3402B6019
:10092000FFE7521CCCE7331DC3F80080DDF800E080
:1009300001B0704700FCFFFF140008000008080029
:1009400081B0CDF800E00348FFF7C6FEDDF800E017
:1009500001B070470048004081B0CDF800E0034886
:10096000FFF7C0FEDDF800E001B07047004800402E
:1009700081B0CDF800E00348FFF7AEFEDDF800E0FF
:1009800001B070470044004081B0CDF800E003485A
:10099000FFF752FDDDF800E001B07047004800406D
:1009A00081B0CDF800E00348FFF746FDDDF800E038
:1009B00001B07047004C004081B0CDF800E081B23A
:1009C0000348FFF779FEDDF800E001B0704700BF93
:1009D000004C004081B0CDF800E081B20348FFF741
:1009E0006BFEDDF800E001B0704700BF004800403A
:1009F00081B0CDF800E00348FFF774FEDDF800E0B9
:100A000001B07047004C004081B0CDF800E081B2E9
:100A10000348FFF751FEDDF800E001B0704700BF6A
:100A20000050004081B0CDF800E00348FFF704FD1E
:100A3000DDF800E001B070470038014081B0CDF82A
:100A400000E00348FFF74EFEDDF800E001B070471C
:100A50000038014081B013B20246C8B211461DB23F
:100A60002CB26B1E1DB214B10870491CF8E7104679
:100A700001B0704781B00091014600980B461C46BA
:100A80005A1C15460346421C10461A7822702278DA
:100A90000AB12B46F3E7084601B0704781B08DF8E4
:100AA000001001469DF80000FFE70A78824201D15C
:100AB000084605E00B46491C1A78002AF5D10020AB
:100AC00001B0704781B0CDF800E00348FFF7B4FCF7
:100AD000DDF800E001B070470044004081B0CDF87F
:100AE00000E00348FFF7FEFDDDF800E001B07047CD
:100AF0000044004081B0CDF800E00348FFF7ECFD72
:100B0000DDF800E001B070470038014081B08DF899
:100B1000002002469DF80000C4B2431ED8B274B152
:100B2000137823B10C781378A34200D104E0147831
:100B30000B78E31A18B204E0521C491CECE70020C1
:100B400000B201B07047FFFF81B0CDF800E081B284
:100B50000348FFF7B1FDDDF800E001B0704700BFCA
:100B60000044004081B0CDF800E004462046FFF785
:100B700091FDC5B2204600F01BFB0124EBB20D49EC
:100B800009888C4211D222010B498918098899429F
:100B900008D1220108498918091D0968814201D13B
:100BA000A0B203E0641CA4B2E9E70020DDF800E095
:100BB00001B07047CC090020D009002085B0CDF8E5
:100BC00000E0824602918DF80C208DF810305046DE
:100BD000FFF760FD8DF81100C4B2102C02D910246B
:100BE0008DF81140012751469DF80C40A7423FD295
:100BF000032404FB07F5029C641901912046FFF7CA
:100C000049FD0199C2B240F2000C8A46F9B25FFA7E
:100C10008CFB5FFA82FC9DF81140A34523D20AEBBE
:100C20000B06032404FB01F5029C64198DF80410E3
:100C30005FFA8CF231462046FFF75AFD9DF804100A
:100C400058B99DF810400CB9C8B212E09DF8104098
:100C5000012C02D15FFA8BF00BE00BF10104E0B242
:100C60005FFA80FBD7E74C1CE5B25146EFB2BBE719
:100C70000020DDF800E005B07047FFFF81B0CDF83F
:100C800000E0019D2C4610B408B493B28AB201462C
:100C90000348FFF7DDFB02B0DDF800E001B070476C
:100CA0000044004081B0CDF800E04FF0420289B22C
:100CB000FFF74CFDDDF800E001B0704781B004465D
:100CC00040F20000ADF8002082B20846BDF80010E6
:100CD00059B183181B782370237813B1521C92B238
:100CE000FFE7641C491E89B2F2E701B07047FFFFBD
:100CF00081B0CDF800E0019D2C4610B408B493B249
:100D00008AB201460348FFF7A3FB02B0DDF800E01A
:100D100001B070470048004081B0CDF800E0044ABF
:100D200089B2FFF713FDDDF800E001B0704700BFA6
:100D30001400080081B0CDF800E00348FFF77CFB09
:100D4000DDF800E001B070470050004081B0CDF800
:100D500000E00348FFF7C6FCDDF800E001B0704793
:100D60000050004081B0CDF800E00348FFF7B4FC2C
:100D7000DDF800E001B07047004C004081B0014652
:100D800008460B460246401C117801B1FAE7C11A29
:100D9000491E08B201B0704781B0CDF800E081B2C1
:100DA0000348FFF789FCDDF800E001B0704700BFA1
:100DB0000038014081B0CDF800E00348FFF78CFC1B
:100DC000DDF800E001B070470050004081B0CDF880
:100DD00000E0019D2C4610B408B493B28AB20146DB
:100DE0000348FFF735FB02B0DDF800E001B07047C3
:100DF0000038014001490860704700BF94812242D9
:100E000001490860704700BF98812242014908608B
:100E1000704700BF9C81214201490860704700BFB4
:100E20009881214201490860704700BFB001224209
:100E300001490860704700BFAC01224201490860C7
:100E4000704700BFAC81224201490860704700BF73
:100E5000B081224289B0CDF800E0069007910DF1F3
:100E6000040B0BF1110ADFF8B0C000F001FF002302
:100E700007222A490698FFF7A1FE8DF820000123DA
:100E8000072226490698FFF799FE8DF821000023D6
:100E9000062223490698FFF791FE8DF822000123D0
:100EA00006221F490698FFF789FEC1B208B9102033
:100EB00000E0C8B29DF82120841A9DF82130069ADE
:100EC000D31801AA19461046A2B2FFF7F7FE01AAED
:100ED0001046FFF747FEC1B2C2B21301114AD21841
:100EE0000C321368079A1360079A141D0B010D4A00
:100EF000D218083212682260079A02F208039DF89D
:100F000020201A70079A0832531C9DF822201A706C
:100F1000DDF800E009B070479A2D00009A05002026
:100F2000AF050020D009002081B0CDF800E0044CCE
:100F30002468A047C0B2DDF800E001B0704700BFF0
:100F4000CC05002081B0CDF800E006460D46AEB1DC
:100F500032789AB12846FFF711FFC2B229463046CF
:100F6000FFF7D4FD08B9304609E02A78D3B2721CE5
:100F7000D9B21046FFF792FD0646E8E70020DDF8FB
:100F800000E001B07047FFFF81B0ADF800100146EE
:100F9000BDF900000B78C2B2934207D00B46491C42
:100FA0001A78002A01D1002001E0F3E7084601B0D9
:100FB0007047FFFF83B0CDF800E00290019001215F
:100FC00000F01EFE01980278242A0AD140F2E8328D
:100FD00012B200210548FFF73DFD02990348FFF7D3
:100FE00049FDDDF800E003B0704700BF18000020A5
:100FF00044F67F77C0F212077F1EFDD100BF00BF0D
:1010000000BF00BF00BF7047002216490A700022CF
:1010100015490A70012215490A70002214490A6014
:10102000012214490A7014490A8814498918087061
:10103000114909884A1C10490A800F490A88104939
:101040008A4202D301220F490A700B490A8840F2F2
:10105000E7318A4204D1084909884A1E06490A80B4
:10106000704700BFD2050020D3050020CA09002028
:10107000D00B0020D0050020E0050020E205002074
:10108000C0000000C205002081B0CDF800E0044C93
:101090002468A047C0B2DDF800E001B0704700BF8F
:1010A000C805002001490860704700BFA80122421E
:1010B00081B0EFF3108C604662B601B07047FFFF5D
:1010C000026806490A60011D0A6805490A6000F2C3
:1010D00008010A6803490A60704700BFD40B00206A
:1010E000C8050020CC05002081B0CDF800E00178D3
:1010F000CCB2A0B2034C2468A0470020DDF800E089
:1011000001B07047C405002081B0042806D11949F8
:10111000096841F4803217490A6028E0052806D1A1
:101120001449096841F4003212490A601FE0062898
:1011300006D11049096841F480220E490A6016E080
:101140000F2806D10C49096841F002020A490A60D9
:101150000DE010280BD3A0F2100461098A000749A2
:101160008B1804F01F024FF001019140196001B08B
:10117000704700BF24ED00E010E000E000E100E077
:101180007047FFFF01490860704700BF900121428E
:1011900000F230011C310A6803490A60011D0A6827
:1011A00002490A60704700BFE00B0020D80B002006
:1011B00000214FF005040346C8B21A46591C0B46DD
:1011C0001178CAB24AB100F00701C9B202FA01F1BE
:1011D00089B26418401CC0B2EFE720467047FFFF99
:1011E00081B0CDF800E00B4D00F20C010C6800F26C
:1011F00008010B68011D0A680168084691B29AB29D
:10120000A3B220B4FFF774FD01B00020DDF800E0C8
:1012100001B07047C42B000081B0CDF800E00B4D49
:1012200000F20C010C6800F208010B68011D0A684D
:101230000168084691B29AB2A3B220B4FFF71EFD2E
:1012400001B00020DDF800E001B070479C2C0000E8
:1012500081B0CDF800E0A9E0012905D140F21001EC
:101260006548FFF71FFD04E040F210016248FFF7F8
:1012700053FDBBE0012905D140F204015F48FFF7AF
:1012800011FD04E040F204015C48FFF745FDADE0CC
:10129000012905D142F200015948FFF703FD04E09E
:1012A00042F200015648FFF737FD9FE0012905D1C2
:1012B00040F200415148FFF7F5FC04E040F20041E4
:1012C0004E48FFF729FD91E0012905D140F60001C4
:1012D0004A48FFF7E7FC04E040F600014748FFF703
:1012E0001BFD83E0012905D141F200014348FFF7CE
:1012F000D9FC04E041F200014048FFF70DFD75E024
:10130000012905D140F201013B48FFF7CBFC04E085
:1013100040F201013848FFF7FFFC67E0012905D1E1
:1013200040F200413648FFF7BDFC04E040F20041C6
:101330003348FFF7F1FC59E0012905D140F20021C3
:101340002F48FFF7AFFC04E040F200212C48FFF7E4
:10135000E3FC4BE0012905D140F200112848FFF7DA
:10136000A1FC04E040F200112548FFF7D5FC3DE068
:10137000012905D140F240012248FFF793FC04E027
:1013800040F240011F48FFF7C7FC2FE0012905D1BB
:1013900040F280011B48FFF785FC04E040F2800129
:1013A0001848FFF7B9FC21E0012020E000283FF4B5
:1013B00053AF01283FF45EAF02283FF469AF032822
:1013C0003FF474AF04283FF47FAF05283FF48AAFA1
:1013D00006283FF495AF0728A0D00828ACD00928EC
:1013E000B8D00A28C4D00B28D0D0DDE70020DDF823
:1013F00000E001B0704700BF00080140001001404C
:1014000000140140000C014081B0CDF800E0A9E0DB
:10141000012905D140F220016548FFF743FC04E0B3
:1014200040F220016248FFF777FCBBE0012905D1BB
:1014300040F208015F48FFF735FC04E040F2080184
:101440005C48FFF769FCADE0012905D144F20001D9
:101450005948FFF727FC04E044F200015648FFF723
:101460005BFC9FE0012905D140F200415148FFF7A4
:1014700019FC04E040F200414E48FFF74DFC91E0BA
:10148000012905D140F600014A48FFF70BFC04E0B2
:1014900040F600014748FFF73FFC83E0012905D1F2
:1014A00041F200014348FFF7FDFB04E041F2000177
:1014B0004048FFF731FC75E0012905D141F20001F8
:1014C0003D48FFF7EFFB04E041F200013A48FFF727
:1014D00023FC67E0012905D140F600013648FFF7FB
:1014E000E1FB04E040F600013348FFF715FC59E04A
:1014F000012905D140F240012F48FFF7D3FB04E05A
:1015000040F240012C48FFF707FC4BE0012905D1D0
:1015100040F220012848FFF7C5FB04E040F220011B
:101520002548FFF7F9FB3DE0012905D140F24001D4
:101530002248FFF7B7FB04E040F240011F48FFF7E5
:10154000EBFB2FE0012905D140F280011B48FFF79A
:10155000A9FB04E040F280011848FFF7DDFB21E021
:10156000012020E000283FF453AF01283FF45EAF94
:1015700002283FF469AF03283FF474AF04283FF416
:101580007FAF05283FF48AAF06283FF495AF0728C0
:10159000A0D00828ACD00928B8D00A28C4D00B287D
:1015A000D0D0DDE70020DDF800E001B0704700BFDB
:1015B000000801400010014000140140000C0140EF
:1015C00081B0CDF800E0094902B440F2000340F2D6
:1015D000000240F20001FFF7F9FB01B0044A05499F
:1015E0000A600020DDF800E001B07047302C0000F8
:1015F000990D0000C405002081B0CDF800E0094934
:1016000002B440F2000340F2000240F20001FFF792
:1016100035FB01B0044A05490A600020DDF800E00E
:1016200001B070479C2C0000490B0000C40500204D
:1016300081B0CDF800E0094902B440F2000340F265
:10164000000240F20001FFF753FB01B0044A0549D4
:101650000A600020DDF800E001B07047C42B0000F4
:10166000D5090000C405002081B0CDF800E009498B
:1016700002B440F2000340F2000240F20001FFF722
:10168000FDFA01B0044A05490A600020DDF800E0D7
:1016900001B070479C2C0000490B0000C4050020DD
:1016A00001490860704700BFA481224201490860D7
:1016B000704700BFA081224201490860704700BF07
:1016C0008001214201490860704700BFA881224281
:1016D00001490860704700BF9881214201490860B4
:1016E000704700BF8C01224201490860704700BF6B
:1016F000B881224201490860704700BF9C812142A5
:1017000001490860704700BF940121420149086007
:10171000704700BFAC01224201490860704700BF1A
:10172000B001224201490860704700BF880122428F
:1017300001490860704700BFA801224201490860C2
:10174000704700BFB481224201490870704700BF52
:10175000C3050020ADF2504DCDF800E04FF000077A
:101760000DF1040B0BF24C4ADFF898C000F080FA40
:101770005FFA82F840F20009FFF7E4FB054608B97A
:1017800038463AE06B1C242109B21846FFF7FCFBEF
:10179000014608B9384630E04C1B01ABA2B22946DD
:1017A0001846FFF78BFA01AE3D465FFA89F75FFAFC
:1017B00088F4A74212D02C2109B23046FFF7E4FB8F
:1017C000431C1E461B782C2B05D17B1C1BB2A3424D
:1017D00001D1284611E07F1CFFB2EAE7731C2C21DF
:1017E00009B21846FFF7D0FB841BFBABA2B231460F
:1017F0001846FFF763FAFBAB1846DDF800E00DF280
:10180000504D70477827000081B0CDF800E05FFAB6
:1018100081F95FFA82FA0FE05FFA8AF15FFA89F0E4
:10182000FFF716FD0DE05FFA8AF15FFA89F0FFF726
:10183000EBFD06E0012004E00028EDD00128F2D005
:10184000F8E7DDF800E001B07047FFFF81B0CDF8A8
:1018500000E009E00846FFF7C3FC0AE00846FFF78E
:10186000DBFC06E0012004E00028F3D00128F5D0DD
:10187000F8E7DDF800E001B07047FFFF81B0CDF878
:1018800000E0A0B101200E4C2468A047FFF7B0FB98
:1018900000200B4C2468A047FFF7AAFBFFF7A8FB2A
:1018A0000120074C2468A047FFF7A2FB03E00020BB
:1018B000034C2468A047DDF800E001B0704700BF8A
:1018C000D80B002081B0CDF800E011E00846FFF70A
:1018D000AFFE16E00846FFF7C7FE12E00846FFF726
:1018E0006FFE0EE00846FFF787FE0AE0012008E0E1
:1018F0000028EBD00128EDD02028EFD03028F1D0FF
:10190000F4E7DDF800E001B07047FFFF81B0CDF8EB
:1019100000E0012149B20E480160002149B20D48A2
:10192000016001210C48016048F69F410B480160AD
:1019300040F22C00FFF7E8FB012149B208480160A2
:1019400004480160FFF7B4FBDDF800E001B0704728
:101950008003424200000042280000402C0000406A
:101960008001004281B0CDF800E00020012806D0BF
:10197000FFF7DAFA18B1FFF787FBFFF745FB52488C
:101980000078002800F03A805048007810B100201C
:10199000FFF7F6FB00214E48017000214D48017011
:1019A0004D480078022805D14C494D484D4C2468DB
:1019B000A0470BE04B494A48FFF74CFA0221464842
:1019C000017046494648474C2468A04700213E48DC
:1019D000017000214448018000214148017000212C
:1019E00042480170002142480170002141480170C5
:1019F0003648007810B10120FFF7C2FB3C48007860
:101A000000282CD03148007810B10020FFF7B8FB37
:101A100000212F48017000212E48017031493048C3
:101A2000FFF718FA00212C4801702C492C482D4C46
:101A30002468A04700212C4801800021284801701B
:101A400000212A48017000212948017000212948FD
:101A500001701E48007810B10120FFF791FB234868
:101A6000007800282CD01948007810B10020FFF72A
:101A700087FB0021164801700021164801701949A2
:101A80001748FFF7E7F9012113480170134914487B
:101A9000144C2468A04700211348018000211048FD
:101AA00001700021114801700021114801700021CE
:101AB000104801700548007810B10120FFF760FB65
:101AC000DDF800E001B07047C2050020C30500202A
:101AD000D0050020D1050020DE050020DC05002017
:101AE000E2050020D4050020E0050020D2050020FA
:101AF000D3050020CA09002081B0CDF800E00346DC
:101B00000846FFF7DDFA1846FFF742FBDDF800E074
:101B100001B0704781B0CDF800E00023274A137070
:101B20000023274A13700023264A13700023264AF5
:101B30001370264A1060264A1160264A1046FFF7A5
:101B400037FB254A10600023244A13800123244ACE
:101B500013800023234A13800023234A1370002399
:101B6000194A13700023174A13700123134A137084
:101B70000023154A13700023124A137000230F4AE2
:101B800013700023194A13600123194A13700023AC
:101B9000174A13700023174A13600123164A137063
:101BA0000023154A1370154A127812B10120FFF76D
:101BB000E7FADDF800E001B0704700BFCA09002075
:101BC000C2050020D3050020D2050020DC0900203A
:101BD000D8090020C1050020D4090020D009002028
:101BE000CC090020E0050020E2050020DC0B0020ED
:101BF000D1050020D00B0020D0050020C305002017
:101C000083B0CDF800E0024610460D228DF8082082
:101C10000A228DF809201FE0FFF766FA23E0027818
:101C20002AB10190FFF760FA0198401CF7E71AE02B
:101C300002782AB10190FFF757FA0198401CF7E7A4
:101C400002AA1046FFF750FA0DF109021046FFF7FD
:101C50004BFA08E0062007E00029DDD00129DED09C
:101C60000229E5D0F6E70020DDF800E003B0704778
:101C700081B01CF8019B0BF8019BBBEB0A0FF8D15C
:101C800001B070471C480078C8B11C4802681B4866
:101C90000068411C194801601948006882420ED949
:101CA0000021154801700021144801601548018881
:101CB000154841180020087001211448017014488B
:101CC0000078C0B11348026812480068411C1148EE
:101CD0000160114882420ED900210D480170002197
:101CE0000C48016007480188074841180020087027
:101CF00001210A4801707047D1050020DC0B00204B
:101D0000D8050020E0050020E2050020D2050020D3
:101D1000D0050020D00B002005000000D3050020D6
:101D200081B01548006840F0010113480160134973
:101D30001348016010480168124801400E480160D4
:101D40000D4801686FF4802001400B4801600C4889
:101D500001686FF4FE00014009480160064801680F
:101D60006FF0A0500140044801604FF000010648A8
:101D7000016001B0704700BF001002400000FFF09A
:101D800004100240FFFFF6FE2C10024081B04FF01D
:101D900000094FF0000CBDEB0A0F04DCBDEB0B0F8C
:101DA00001DBD446EA464BF8049BBBEB0A0FFAD1A1
:101DB000BCEB0A0F05DDE246D9F800B00BF1040BCD
:101DC000F1E701B07047FFFF8EB0CDF800E00DF1F4
:101DD000040B0BF1320ADFF83CC1FFF749FFFFF7B4
:101DE000C1FD4D48016841F2883081420FD94B490D
:101DF0000878401CC0B20870022802D90021474868
:101E000001700021444801600121454801704348A8
:101E10000078002825D142480078012821D1414886
:101E20000221FFF7EDFE02223F494048FFF792FCF6
:101E3000014620B93E480221FFF7E2FE0AE001A870
:101E4000FEF718FE3B480121FFF7DAFE01A8022148
:101E5000FFF7D6FE00213248017037480221FFF714
:101E6000CFFE2E480078022825D12D480078012881
:101E700021D132480221FFF7C3FE09222A492B480B
:101E8000FFF768FC014620B92D480221FFF7B8FE94
:101E90000AE001A8FEF7EEFD2A480121FFF7B0FE97
:101EA00001A80221FFF7ACFE00211D480170264861
:101EB0000221FFF7A5FE19480078012825D118480E
:101EC0000078012821D121480221FFF799FE042240
:101ED00015491648FFF73EFC014620B91C4802216F
:101EE000FFF78EFE0AE001A8FEF7C4FD19480121A4
:101EF000FFF786FE01A80221FFF782FE00210848B5
:101F0000017015480221FFF77BFEDDF800E00EB0FE
:101F1000704700BF682D000014000020000400205E
:101F200001040020020400202D04002018000020DD
:101F30003D0400205C04002069040020940400207B
:101F4000BF040020DE040020EB0400201605002062
:101F500041050020610500206F05002002040608ED
:101F600081B0CDF800E0FFF7D1FC10491048FFF731
:101F7000C3FD104840F2DC51FFF7CCFD0120FFF714
:101F8000E3FB0120FFF77AFC48F2FF67C0F29337CA
:101F90007F1EFDD100BF00BF00BF00BF00BF0021FA
:101FA00005480160DDF800E001B07047CC2D00006D
:101FB000082D0000B50F00001400002081B0CDF8FE
:101FC00000E0012207210020FFF71EFC0022012172
:101FD0000020FFF719FC094801460020FFF736FCF6
:101FE00042F280513020FFF76DFC05480221FFF7D7
:101FF00007FEDDF800E001B0704700BFBC2D000017
:102000000000002081B0FEE701B0704781B0CDF83C
:1020100000E007490868401C0860FFF733FE002114
:1020200049B204480160DDF800E001B0704700BF2C
:10203000140000200002004281B0CDF800E0464AC2
:10204000464B474C47494BF68030814206D94648BB
:10205000006840F002014448016011E045F6C050BC
:10206000814206D94048006840F001013E480160C5
:1020700006E03D4801686FF0070001403A48016002
:10208000FFF74EFE3948036039480460394802EAD8
:1020900000013948016002F0010040B1194636489C
:1020A000006800F00200002800D1F8E700E01946BF
:1020B00002F4803040B10B462F48006800F4003035
:1020C000002800D1F8E700E00B4602F0805068B12C
:1020D0002948006840F08051274801602648006880
:1020E00000F00050002800D1F8E7FFE702F0806020
:1020F00078B12148006840F080611F4801601146B6
:102100001A461D48006800F00060002800D1F8E77A
:1021100001E011461A4601F0807070B1164800685F
:1021200040F080711448016011461348006800F0C7
:10213000007000B9F9E70A46FFE70C48006800F0B4
:102140000C01900000F00C00814200D0F5E7DDF8B2
:1021500000E001B0704700BF8100010502841D004E
:102160004406010040190100002002400410024012
:102170002C100240FFFF0F0000100240FFF75CFF31
:1021800000F06AFE00F00AF800F026FEFFF716FFE6
:10219000FFF7E6FEFFF718FEFCE7FEE781B0024915
:1021A0000248016001B0704740190100E40B0020B3
:1021B0002D2D2D2053797374656D20496E6974201F
:1021C0002D2D2D0000000000000000000000000088
:1021D00000000000000000000000000000000000FF
:1021E00000000000000000000000000000000000EF
:1021F00000000000000000000000000000000000DF
:1022000000000000000000000000000000000000CE
:1025B0000000202D2D2D2D2D2D2D2D2D2D2D2D2DB2
:1025C0002D2D2D2D2D2D2D2D2D2D2D2D2D2D2D2D3B
:1025D0002D2D2D2D2D2D2D2D2D2D2D200024475031
:1025E00047474100000000000000000000204C614F
:1025F000746974756465203A204E6F20646174615B
:1026000020617661696C61626C652100204C6174A7
:102610006974756465203A2000202D2D2D2D2D2DF7
:102620002D2D2D2D2D2D2D2D2D2D2D2D2D2D2D2DDA
:102630002D2D2D2D2D2D2D2D2D2D2D2D2D2D2D2DCA
:102640002D2D2000202D2D2D2D2D2D2D2D2D2D2D01
:102650002D2D2D2D2D2D2D2D2D2D2D2D2D2D2D2DAA
:102660002D2D2D2D2D2D2D2D2D2D2D2D2D200020E1
:10267000416C746974756465203A204E6F20646102
:10268000746120617661696C61626C652100204132
:102690006C746974756465203A2000202D2D2D2DF1
:1026A0002D2D2D2D2D2D2D2D2D2D2D2D2D2D2D2D5A
:1026B0002D2D2D2D2D2D2D2D2D2D2D2D2D2D2D2D4A
:1026C0002D2D2D2D2000202D2D2D2D2D2D2D2D2D81
:1026D0002D2D2D2D2D2D2D2D2D2D2D2D2D2D2D2D2A
:1026E0002D2D2D2D2D2D2D2D2D2D2D2D2D2D2D2027
:1026F00000204C6F6E676974756465203A204E6FD8
:10270000206461746120617661696C61626C65212D
:1027100000204C6F6E676974756465203A20002054
:102720002D2D2D2D2D2D2D2D2D2D2D2D2D2D2D2DD9
:102730002D2D2D2D2D2D2D2D2D2D2D2D2D2D2D2DC9
:102740002D2D2D2D2D2D2D2D20000000002B0000D6
:10275000230000240000255C00260000000000008B
:1027600000003D3F003F00003D00003A00000D002A
:102770000000FFFF0000000000000000000000005B
:102780000000000000000000000000000000000049
:102790000000000000000000000000000000000039
:1027A0000000000000000000000000000000000029
:1027B0000000000000000000000000000000000019
:102BC000000000003800000039000000FFFFFFFF98
:102BD00000000000000000000000000000000000F5
:102BE00000000000000000000000000000000000E5
:102BF000000000000000000018080000180000009D
:102C000000000000000000000000000000000000C4
:102C100000000000000000000000000000000000B4
:102C20000000000000000000000000003000140858
:102C3000090000000A000000FFFFFFFF0000000085
:102C40000000000000000000000000000000000084
:102C50000000000000000000000000000000000074
:102C6000000000001808000018000000000000002C
:102C70000000000000000000000000000000000054
:102C80000000000000000000000000000000000044
:102C900000000000000000000400000035000000FB
:102CA00036000000FFFFFFFF0000000000000000F2
:102CB0000000000000000000000000000000000014
:102CC0000000000000000000000000000000000004
:102CD00018080000180000000000000000000000BC
:102CE00000000000000000000000000000000000E4
:102CF00000000000000000000000000000000000D4
:102D000000000000080000088511000025170000E1
:102D10003D170000311700000D17000019170000C3
:102D2000B9160000C5160000A1160000AD1600007F
:102D3000D1160000F5160000FFFFFFFFFFFFFFFFA9
:102D4000FFFFFFFFFFFFFFFFFFFFFFFFFFFFFFFF93
:102D5000FFFFFFFFFFFFFFFFFFFFFFFFFFFFFFFF83
:102D6000FFFFFFFFFFFFFFFF00000000000000006B
:102D70000000000000000000000000000000000053
:102D80000000000000000000000000000000000043
:102D90000000000000000000000000000000000033
:102DA0000000000000000000000000000000000122
:102DB0000203040102030406070809FF802500003E
:102DC000000000000000000000000000D509000025
:102DD000890900005909000000B5DFF814B0DFF8D8
:102DE00014A0DFF814C0FEF743FF00BD704700BF1A
:102DF00000000020C2050020B0210000FFFFFFFFFF
:102E0000FFFFFFFFFFFFFFFFFFFFFFFFFFFFFFFFD2
:102E1000FFFFFFFFFFFFFFFFFFFFFFFFFFFFFFFFC2
:102E2000FFFFFFFFFFFFFFFFFFFFFFFFFFFFFFFFB2
:102E3000FFFFFFFFFFFFFFFFFFFFFFFFFFFFFFFFA2
:102E4000FFFFFFFFFFFFFFFFFFFFFFFFFFFFFFFF92
:102E5000FFFFFFFFFFFFFFFF00B5DFF810B0DFF857
:102E600010A0FEF793FF00BD704700BF00000020D8
:102E7000F80B0020FFFFFFFFFFFFFFFFFFFFFFFF3B
:00000001FF
